{
  "contractName": "AuraStaking",
  "abi": [
    {
      "inputs": [
        {
          "internalType": "address",
          "name": "_stakingToken",
          "type": "address"
        },
        {
          "internalType": "uint256",
          "name": "_rewardRate",
          "type": "uint256"
        }
      ],
      "stateMutability": "nonpayable",
      "type": "constructor"
    },
    {
      "inputs": [],
      "name": "_totalSupply",
      "outputs": [
        {
          "internalType": "uint256",
          "name": "",
          "type": "uint256"
        }
      ],
      "stateMutability": "view",
      "type": "function",
      "constant": true
    },
    {
      "inputs": [],
      "name": "rewardRate",
      "outputs": [
        {
          "internalType": "uint256",
          "name": "",
          "type": "uint256"
        }
      ],
      "stateMutability": "view",
      "type": "function",
      "constant": true
    },
    {
      "inputs": [
        {
          "internalType": "address",
          "name": "",
          "type": "address"
        }
      ],
      "name": "rewards",
      "outputs": [
        {
          "internalType": "uint256",
          "name": "",
          "type": "uint256"
        }
      ],
      "stateMutability": "view",
      "type": "function",
      "constant": true
    },
    {
      "inputs": [],
      "name": "stakingToken",
      "outputs": [
        {
          "internalType": "contract IERC20",
          "name": "",
          "type": "address"
        }
      ],
      "stateMutability": "view",
      "type": "function",
      "constant": true
    },
    {
      "inputs": [
        {
          "internalType": "address",
          "name": "account",
          "type": "address"
        }
      ],
      "name": "earned",
      "outputs": [
        {
          "internalType": "uint256",
          "name": "",
          "type": "uint256"
        }
      ],
      "stateMutability": "view",
      "type": "function",
      "constant": true
    },
    {
      "inputs": [
        {
          "internalType": "uint256",
          "name": "_amount",
          "type": "uint256"
        }
      ],
      "name": "stake",
      "outputs": [],
      "stateMutability": "nonpayable",
      "type": "function"
    },
    {
      "inputs": [
        {
          "internalType": "uint256",
          "name": "_amount",
          "type": "uint256"
        }
      ],
      "name": "withdraw",
      "outputs": [],
      "stateMutability": "nonpayable",
      "type": "function"
    },
    {
      "inputs": [],
      "name": "getReward",
      "outputs": [],
      "stateMutability": "nonpayable",
      "type": "function"
    },
    {
      "inputs": [
        {
          "internalType": "address",
          "name": "addr",
          "type": "address"
        }
      ],
      "name": "getStake",
      "outputs": [
        {
          "internalType": "uint256",
          "name": "",
          "type": "uint256"
        }
      ],
      "stateMutability": "view",
      "type": "function",
      "constant": true
    },
    {
      "inputs": [
        {
          "internalType": "address",
          "name": "addr",
          "type": "address"
        },
        {
          "internalType": "uint256",
          "name": "numDays",
          "type": "uint256"
        }
      ],
      "name": "adjustUserTimestamp",
      "outputs": [],
      "stateMutability": "nonpayable",
      "type": "function"
    }
  ],
  "bytecode": "0x60806040523480156200001157600080fd5b50604051620012383803806200123883398181016040528101906200003791906200016c565b816000806101000a81548173ffffffffffffffffffffffffffffffffffffffff021916908373ffffffffffffffffffffffffffffffffffffffff1602179055508060028190555033600160006101000a81548173ffffffffffffffffffffffffffffffffffffffff021916908373ffffffffffffffffffffffffffffffffffffffff1602179055505050620001b3565b600080fd5b600073ffffffffffffffffffffffffffffffffffffffff82169050919050565b6000620000f982620000cc565b9050919050565b6200010b81620000ec565b81146200011757600080fd5b50565b6000815190506200012b8162000100565b92915050565b6000819050919050565b620001468162000131565b81146200015257600080fd5b50565b60008151905062000166816200013b565b92915050565b60008060408385031215620001865762000185620000c7565b5b600062000196858286016200011a565b9250506020620001a98582860162000155565b9150509250929050565b61107580620001c36000396000f3fe608060405234801561001057600080fd5b506004361061009d5760003560e01c806372f702f31161006657806372f702f3146101465780637a766460146101645780637b0a47ee14610194578063a694fc3a146101b2578063cea51b0d146101ce5761009d565b80628cc262146100a25780630700037d146100d25780632e1a7d4d146101025780633d18b9121461011e5780633eaaf86b14610128575b600080fd5b6100bc60048036038101906100b79190610b44565b6101ea565b6040516100c99190610b8a565b60405180910390f35b6100ec60048036038101906100e79190610b44565b6102ed565b6040516100f99190610b8a565b60405180910390f35b61011c60048036038101906101179190610bd1565b610305565b005b61012661055b565b005b610130610718565b60405161013d9190610b8a565b60405180910390f35b61014e61071e565b60405161015b9190610c5d565b60405180910390f35b61017e60048036038101906101799190610b44565b610742565b60405161018b9190610b8a565b60405180910390f35b61019c61078b565b6040516101a99190610b8a565b60405180910390f35b6101cc60048036038101906101c79190610bd1565b610791565b005b6101e860048036038101906101e39190610c78565b6109e9565b005b6000600460008373ffffffffffffffffffffffffffffffffffffffff1673ffffffffffffffffffffffffffffffffffffffff1681526020019081526020016000205460025462015180600760008673ffffffffffffffffffffffffffffffffffffffff1673ffffffffffffffffffffffffffffffffffffffff168152602001908152602001600020544261027e9190610ce7565b6102889190610d4a565b600660008673ffffffffffffffffffffffffffffffffffffffff1673ffffffffffffffffffffffffffffffffffffffff168152602001908152602001600020546102d29190610d7b565b6102dc9190610d7b565b6102e69190610dd5565b9050919050565b60046020528060005260406000206000915090505481565b3361030f816101ea565b600460008373ffffffffffffffffffffffffffffffffffffffff1673ffffffffffffffffffffffffffffffffffffffff1681526020019081526020016000208190555042600760008373ffffffffffffffffffffffffffffffffffffffff1673ffffffffffffffffffffffffffffffffffffffff16815260200190815260200160002081905550816000600a826103a69190610e2b565b146103e6576040517f08c379a00000000000000000000000000000000000000000000000000000000081526004016103dd90610edf565b60405180910390fd5b82600360008282546103f89190610ce7565b9250508190555082600560003373ffffffffffffffffffffffffffffffffffffffff1673ffffffffffffffffffffffffffffffffffffffff168152602001908152602001600020600082825461044e9190610ce7565b92505081905550600a836104629190610d4a565b600660003373ffffffffffffffffffffffffffffffffffffffff1673ffffffffffffffffffffffffffffffffffffffff16815260200190815260200160002060008282546104b09190610ce7565b9250508190555060008054906101000a900473ffffffffffffffffffffffffffffffffffffffff1673ffffffffffffffffffffffffffffffffffffffff1663a9059cbb33856040518363ffffffff1660e01b8152600401610512929190610f0e565b6020604051808303816000875af1158015610531573d6000803e3d6000fd5b505050506040513d601f19601f820116820180604052508101906105559190610f6f565b50505050565b33610565816101ea565b600460008373ffffffffffffffffffffffffffffffffffffffff1673ffffffffffffffffffffffffffffffffffffffff1681526020019081526020016000208190555042600760008373ffffffffffffffffffffffffffffffffffffffff1673ffffffffffffffffffffffffffffffffffffffff168152602001908152602001600020819055506000600460003373ffffffffffffffffffffffffffffffffffffffff1673ffffffffffffffffffffffffffffffffffffffff1681526020019081526020016000205490506000600460003373ffffffffffffffffffffffffffffffffffffffff1673ffffffffffffffffffffffffffffffffffffffff1681526020019081526020016000208190555060008054906101000a900473ffffffffffffffffffffffffffffffffffffffff1673ffffffffffffffffffffffffffffffffffffffff1663a9059cbb33836040518363ffffffff1660e01b81526004016106d0929190610f0e565b6020604051808303816000875af11580156106ef573d6000803e3d6000fd5b505050506040513d601f19601f820116820180604052508101906107139190610f6f565b505050565b60035481565b60008054906101000a900473ffffffffffffffffffffffffffffffffffffffff1681565b6000600560008373ffffffffffffffffffffffffffffffffffffffff1673ffffffffffffffffffffffffffffffffffffffff168152602001908152602001600020549050919050565b60025481565b3361079b816101ea565b600460008373ffffffffffffffffffffffffffffffffffffffff1673ffffffffffffffffffffffffffffffffffffffff1681526020019081526020016000208190555042600760008373ffffffffffffffffffffffffffffffffffffffff1673ffffffffffffffffffffffffffffffffffffffff16815260200190815260200160002081905550816000600a826108329190610e2b565b14610872576040517f08c379a000000000000000000000000000000000000000000000000000000000815260040161086990610edf565b60405180910390fd5b60008054906101000a900473ffffffffffffffffffffffffffffffffffffffff1673ffffffffffffffffffffffffffffffffffffffff166323b872dd3330866040518463ffffffff1660e01b81526004016108cf93929190610f9c565b6020604051808303816000875af11580156108ee573d6000803e3d6000fd5b505050506040513d601f19601f820116820180604052508101906109129190610f6f565b5082600360008282546109259190610dd5565b9250508190555082600560003373ffffffffffffffffffffffffffffffffffffffff1673ffffffffffffffffffffffffffffffffffffffff168152602001908152602001600020600082825461097b9190610dd5565b92505081905550600a8361098f9190610d4a565b600660003373ffffffffffffffffffffffffffffffffffffffff1673ffffffffffffffffffffffffffffffffffffffff16815260200190815260200160002060008282546109dd9190610dd5565b92505081905550505050565b600160009054906101000a900473ffffffffffffffffffffffffffffffffffffffff1673ffffffffffffffffffffffffffffffffffffffff163373ffffffffffffffffffffffffffffffffffffffff1614610a79576040517f08c379a0000000000000000000000000000000000000000000000000000000008152600401610a709061101f565b60405180910390fd5b6201518081610a889190610d7b565b600760008473ffffffffffffffffffffffffffffffffffffffff1673ffffffffffffffffffffffffffffffffffffffff1681526020019081526020016000206000828254610ad69190610ce7565b925050819055505050565b600080fd5b600073ffffffffffffffffffffffffffffffffffffffff82169050919050565b6000610b1182610ae6565b9050919050565b610b2181610b06565b8114610b2c57600080fd5b50565b600081359050610b3e81610b18565b92915050565b600060208284031215610b5a57610b59610ae1565b5b6000610b6884828501610b2f565b91505092915050565b6000819050919050565b610b8481610b71565b82525050565b6000602082019050610b9f6000830184610b7b565b92915050565b610bae81610b71565b8114610bb957600080fd5b50565b600081359050610bcb81610ba5565b92915050565b600060208284031215610be757610be6610ae1565b5b6000610bf584828501610bbc565b91505092915050565b6000819050919050565b6000610c23610c1e610c1984610ae6565b610bfe565b610ae6565b9050919050565b6000610c3582610c08565b9050919050565b6000610c4782610c2a565b9050919050565b610c5781610c3c565b82525050565b6000602082019050610c726000830184610c4e565b92915050565b60008060408385031215610c8f57610c8e610ae1565b5b6000610c9d85828601610b2f565b9250506020610cae85828601610bbc565b9150509250929050565b7f4e487b7100000000000000000000000000000000000000000000000000000000600052601160045260246000fd5b6000610cf282610b71565b9150610cfd83610b71565b925082821015610d1057610d0f610cb8565b5b828203905092915050565b7f4e487b7100000000000000000000000000000000000000000000000000000000600052601260045260246000fd5b6000610d5582610b71565b9150610d6083610b71565b925082610d7057610d6f610d1b565b5b828204905092915050565b6000610d8682610b71565b9150610d9183610b71565b9250817fffffffffffffffffffffffffffffffffffffffffffffffffffffffffffffffff0483118215151615610dca57610dc9610cb8565b5b828202905092915050565b6000610de082610b71565b9150610deb83610b71565b9250827fffffffffffffffffffffffffffffffffffffffffffffffffffffffffffffffff03821115610e2057610e1f610cb8565b5b828201905092915050565b6000610e3682610b71565b9150610e4183610b71565b925082610e5157610e50610d1b565b5b828206905092915050565b600082825260208201905092915050565b7f4d75737420707572636861736520696e2031302064656e6f6d696e6174696f6e60008201527f7300000000000000000000000000000000000000000000000000000000000000602082015250565b6000610ec9602183610e5c565b9150610ed482610e6d565b604082019050919050565b60006020820190508181036000830152610ef881610ebc565b9050919050565b610f0881610b06565b82525050565b6000604082019050610f236000830185610eff565b610f306020830184610b7b565b9392505050565b60008115159050919050565b610f4c81610f37565b8114610f5757600080fd5b50565b600081519050610f6981610f43565b92915050565b600060208284031215610f8557610f84610ae1565b5b6000610f9384828501610f5a565b91505092915050565b6000606082019050610fb16000830186610eff565b610fbe6020830185610eff565b610fcb6040830184610b7b565b949350505050565b7f4163636573732064656e69656400000000000000000000000000000000000000600082015250565b6000611009600d83610e5c565b915061101482610fd3565b602082019050919050565b6000602082019050818103600083015261103881610ffc565b905091905056fea264697066735822122094488ef9a1efb08b73c868a98a7d46dc526a4ae81bd58c33c74b891543825d8664736f6c634300080c0033",
  "immutableReferences": {},
  "source": "// SPDX-License-Identifier: MIT\npragma solidity >=0.4.22 <0.9.0;\n\nimport \"@openzeppelin/contracts/token/ERC20/IERC20.sol\";\ncontract AuraStaking {\n\n    IERC20 public stakingToken;\n\n    address private owner;\n    uint public rewardRate;\n    uint public _totalSupply;\n\n    mapping(address => uint) public rewards;\n    mapping(address => uint) private _balances;\n    mapping(address => uint) private _nodeCount;\n    mapping(address => uint) private _lastUpdateTime;\n\n    constructor(address _stakingToken, uint _rewardRate) {\n        stakingToken = IERC20(_stakingToken);\n        rewardRate = _rewardRate;\n        owner = msg.sender;\n    }\n\n    function earned(address account) public view returns (uint) {\n        return\n            (_nodeCount[account] *\n                ((block.timestamp - _lastUpdateTime[account])/86400) * rewardRate) +\n            rewards[account];\n    }\n\n    modifier updateReward(address account){\n      rewards[account] = earned(account);\n      _lastUpdateTime[account] = block.timestamp;\n      _;\n    }\n\n    function stake(uint _amount) external updateReward(msg.sender) isBond(_amount) {\n        stakingToken.transferFrom(msg.sender, address(this), _amount);\n        _totalSupply += _amount;\n        _balances[msg.sender] += _amount;\n        _nodeCount[msg.sender] += _amount/10;\n    }\n\n    function withdraw(uint _amount) external updateReward(msg.sender) isBond(_amount){\n        _totalSupply -= _amount;\n        _balances[msg.sender] -= _amount;\n        _nodeCount[msg.sender] -= _amount/10;\n        stakingToken.transfer(msg.sender, _amount);\n    }\n\n    function getReward() external updateReward(msg.sender) {\n        uint reward = rewards[msg.sender];\n        rewards[msg.sender] = 0;\n        stakingToken.transfer(msg.sender, reward);\n    }\n\n    function getStake(address addr) external view returns(uint){\n      return _balances[addr];\n    }\n\n    function adjustUserTimestamp(address addr, uint numDays) public isOwner(){\n      _lastUpdateTime[addr] -= numDays * 86400;\n    }\n    \n    modifier isBond(uint _amount){\n      require(_amount % 10 == 0, \"Must purchase in 10 denominations\");\n      _;\n    }\n\n    modifier isOwner(){\n      require(msg.sender == owner, \"Access denied\");\n      _;\n    }\n}\n",
  "sourcePath": "C:\\Users\\Ian\\FactionFinancial\\contracts\\StakeAura.sol",
  "compiler": {
    "name": "solc",
    "version": "0.8.12+commit.f00d7308.Emscripten.clang"
  },
  "schemaVersion": "3.4.6",
  "updatedAt": "2022-04-05T01:50:52.076Z",
  "networkType": "ethereum",
  "devdoc": {
    "kind": "dev",
    "methods": {},
    "version": 1
  },
  "userdoc": {
    "kind": "user",
    "methods": {},
    "version": 1
  }
}