{
  "contractName": "MintAura",
  "abi": [
    {
      "inputs": [
        {
          "internalType": "address",
          "name": "_auraAddress",
          "type": "address"
        },
        {
          "internalType": "uint256",
          "name": "_pricePerToken",
          "type": "uint256"
        }
      ],
      "stateMutability": "nonpayable",
      "type": "constructor"
    },
    {
      "anonymous": false,
      "inputs": [
        {
          "indexed": true,
          "internalType": "address",
          "name": "addr",
          "type": "address"
        },
        {
          "indexed": false,
          "internalType": "uint256",
          "name": "qtyMinted",
          "type": "uint256"
        }
      ],
      "name": "Minted",
      "type": "event"
    },
    {
      "anonymous": false,
      "inputs": [
        {
          "indexed": false,
          "internalType": "uint256",
          "name": "newRate",
          "type": "uint256"
        }
      ],
      "name": "NewXrate",
      "type": "event"
    },
    {
      "inputs": [
        {
          "internalType": "uint256",
          "name": "qty",
          "type": "uint256"
        }
      ],
      "name": "mint",
      "outputs": [],
      "stateMutability": "payable",
      "type": "function"
    },
    {
      "inputs": [],
      "name": "withdraw",
      "outputs": [],
      "stateMutability": "nonpayable",
      "type": "function"
    },
    {
      "inputs": [
        {
          "internalType": "uint256",
          "name": "qty",
          "type": "uint256"
        }
      ],
      "name": "withdrawTokens",
      "outputs": [],
      "stateMutability": "nonpayable",
      "type": "function"
    },
    {
      "inputs": [
        {
          "internalType": "uint256",
          "name": "newRate",
          "type": "uint256"
        }
      ],
      "name": "adjustExchangeRate",
      "outputs": [],
      "stateMutability": "nonpayable",
      "type": "function"
    },
    {
      "inputs": [
        {
          "internalType": "address",
          "name": "addr",
          "type": "address"
        }
      ],
      "name": "getMintTotal",
      "outputs": [
        {
          "internalType": "uint256",
          "name": "total",
          "type": "uint256"
        }
      ],
      "stateMutability": "view",
      "type": "function"
    }
  ],
  "bytecode": "0x60806040523480156200001157600080fd5b5060405162000e3538038062000e3583398181016040528101906200003791906200016c565b33600160006101000a81548173ffffffffffffffffffffffffffffffffffffffff021916908373ffffffffffffffffffffffffffffffffffffffff160217905550816000806101000a81548173ffffffffffffffffffffffffffffffffffffffff021916908373ffffffffffffffffffffffffffffffffffffffff160217905550806002819055505050620001b3565b600080fd5b600073ffffffffffffffffffffffffffffffffffffffff82169050919050565b6000620000f982620000cc565b9050919050565b6200010b81620000ec565b81146200011757600080fd5b50565b6000815190506200012b8162000100565b92915050565b6000819050919050565b620001468162000131565b81146200015257600080fd5b50565b60008151905062000166816200013b565b92915050565b60008060408385031215620001865762000185620000c7565b5b600062000196858286016200011a565b9250506020620001a98582860162000155565b9150509250929050565b610c7280620001c36000396000f3fe60806040526004361061004a5760003560e01c806326e26fcf1461004f578063315a095d1461008c5780633ccfd60b146100b557806386b05d94146100cc578063a0712d68146100f5575b600080fd5b34801561005b57600080fd5b50610076600480360381019061007191906107e8565b610111565b604051610083919061082e565b60405180910390f35b34801561009857600080fd5b506100b360048036038101906100ae9190610875565b61015a565b005b3480156100c157600080fd5b506100ca6102ae565b005b3480156100d857600080fd5b506100f360048036038101906100ee9190610875565b6103a9565b005b61010f600480360381019061010a9190610875565b61047a565b005b6000600460008373ffffffffffffffffffffffffffffffffffffffff1673ffffffffffffffffffffffffffffffffffffffff168152602001908152602001600020549050919050565b600160009054906101000a900473ffffffffffffffffffffffffffffffffffffffff1673ffffffffffffffffffffffffffffffffffffffff163373ffffffffffffffffffffffffffffffffffffffff16146101ea576040517f08c379a00000000000000000000000000000000000000000000000000000000081526004016101e1906108ff565b60405180910390fd5b60008054906101000a900473ffffffffffffffffffffffffffffffffffffffff1673ffffffffffffffffffffffffffffffffffffffff1663a9059cbb600160009054906101000a900473ffffffffffffffffffffffffffffffffffffffff16836040518363ffffffff1660e01b815260040161026792919061092e565b6020604051808303816000875af1158015610286573d6000803e3d6000fd5b505050506040513d601f19601f820116820180604052508101906102aa919061098f565b5050565b600160009054906101000a900473ffffffffffffffffffffffffffffffffffffffff1673ffffffffffffffffffffffffffffffffffffffff163373ffffffffffffffffffffffffffffffffffffffff161461033e576040517f08c379a0000000000000000000000000000000000000000000000000000000008152600401610335906108ff565b60405180910390fd5b600160009054906101000a900473ffffffffffffffffffffffffffffffffffffffff1673ffffffffffffffffffffffffffffffffffffffff166108fc479081150290604051600060405180830381858888f193505050501580156103a6573d6000803e3d6000fd5b50565b600160009054906101000a900473ffffffffffffffffffffffffffffffffffffffff1673ffffffffffffffffffffffffffffffffffffffff163373ffffffffffffffffffffffffffffffffffffffff1614610439576040517f08c379a0000000000000000000000000000000000000000000000000000000008152600401610430906108ff565b60405180910390fd5b806002819055507f47e9ad31d7b68828ce23ea8a2a351ce779dbdc669a0ad963851fb5f94d2516358160405161046f919061082e565b60405180910390a150565b600360009054906101000a900460ff16156104ca576040517f08c379a00000000000000000000000000000000000000000000000000000000081526004016104c190610a08565b60405180910390fd5b6001600360006101000a81548160ff02191690831515021790555067016345785d8a0000600254826104fc9190610a57565b6105069190610a57565b341015610548576040517f08c379a000000000000000000000000000000000000000000000000000000000815260040161053f90610afd565b60405180910390fd5b8060008054906101000a900473ffffffffffffffffffffffffffffffffffffffff1673ffffffffffffffffffffffffffffffffffffffff166370a08231306040518263ffffffff1660e01b81526004016105a29190610b1d565b602060405180830381865afa1580156105bf573d6000803e3d6000fd5b505050506040513d601f19601f820116820180604052508101906105e39190610b4d565b1015610624576040517f08c379a000000000000000000000000000000000000000000000000000000000815260040161061b90610bc6565b60405180910390fd5b60008054906101000a900473ffffffffffffffffffffffffffffffffffffffff1673ffffffffffffffffffffffffffffffffffffffff1663a9059cbb33836040518363ffffffff1660e01b815260040161067f92919061092e565b6020604051808303816000875af115801561069e573d6000803e3d6000fd5b505050506040513d601f19601f820116820180604052508101906106c2919061098f565b5080600460003373ffffffffffffffffffffffffffffffffffffffff1673ffffffffffffffffffffffffffffffffffffffff16815260200190815260200160002060008282546107129190610be6565b925050819055503373ffffffffffffffffffffffffffffffffffffffff167f30385c845b448a36257a6a1716e6ad2e1bc2cbe333cde1e69fe849ad6511adfe8260405161075f919061082e565b60405180910390a26000600360006101000a81548160ff02191690831515021790555050565b600080fd5b600073ffffffffffffffffffffffffffffffffffffffff82169050919050565b60006107b58261078a565b9050919050565b6107c5816107aa565b81146107d057600080fd5b50565b6000813590506107e2816107bc565b92915050565b6000602082840312156107fe576107fd610785565b5b600061080c848285016107d3565b91505092915050565b6000819050919050565b61082881610815565b82525050565b6000602082019050610843600083018461081f565b92915050565b61085281610815565b811461085d57600080fd5b50565b60008135905061086f81610849565b92915050565b60006020828403121561088b5761088a610785565b5b600061089984828501610860565b91505092915050565b600082825260208201905092915050565b7f4163636573732064656e69656400000000000000000000000000000000000000600082015250565b60006108e9600d836108a2565b91506108f4826108b3565b602082019050919050565b60006020820190508181036000830152610918816108dc565b9050919050565b610928816107aa565b82525050565b6000604082019050610943600083018561091f565b610950602083018461081f565b9392505050565b60008115159050919050565b61096c81610957565b811461097757600080fd5b50565b60008151905061098981610963565b92915050565b6000602082840312156109a5576109a4610785565b5b60006109b38482850161097a565b91505092915050565b7f4e6f2072652d656e7472616e6379000000000000000000000000000000000000600082015250565b60006109f2600e836108a2565b91506109fd826109bc565b602082019050919050565b60006020820190508181036000830152610a21816109e5565b9050919050565b7f4e487b7100000000000000000000000000000000000000000000000000000000600052601160045260246000fd5b6000610a6282610815565b9150610a6d83610815565b9250817fffffffffffffffffffffffffffffffffffffffffffffffffffffffffffffffff0483118215151615610aa657610aa5610a28565b5b828202905092915050565b7f496e73756666696369656e742046756e64730000000000000000000000000000600082015250565b6000610ae76012836108a2565b9150610af282610ab1565b602082019050919050565b60006020820190508181036000830152610b1681610ada565b9050919050565b6000602082019050610b32600083018461091f565b92915050565b600081519050610b4781610849565b92915050565b600060208284031215610b6357610b62610785565b5b6000610b7184828501610b38565b91505092915050565b7f4e6f7420656e6f756768206d696e742066756e6473206c656674000000000000600082015250565b6000610bb0601a836108a2565b9150610bbb82610b7a565b602082019050919050565b60006020820190508181036000830152610bdf81610ba3565b9050919050565b6000610bf182610815565b9150610bfc83610815565b9250827fffffffffffffffffffffffffffffffffffffffffffffffffffffffffffffffff03821115610c3157610c30610a28565b5b82820190509291505056fea264697066735822122028dc7a18c7364c43ceb9aab8423e6909be5ff8e0e4fd1edbe7480c4e3814477664736f6c634300080c0033",
  "immutableReferences": {},
  "source": "// SPDX-License-Identifier: MIT\npragma solidity >=0.4.22 <0.9.0;\n\nimport \"@openzeppelin/contracts/token/ERC20/IERC20.sol\";\n\ncontract MintAura {\n\n  IERC20 private auraToken;\n\n  address private owner;\n  uint private pricePerToken;\n  bool internal locked;\n  mapping(address => uint) private mintMember;\n\n  event Minted(address indexed addr, uint qtyMinted);\n  event NewXrate(uint newRate);\n\n  constructor(address _auraAddress, uint _pricePerToken) {\n    owner = msg.sender;\n    auraToken = IERC20(_auraAddress);\n    pricePerToken = _pricePerToken; \n  }\n\n  modifier noReentrant() {\n      require(!locked, \"No re-entrancy\");\n      locked = true;\n      _;\n      locked = false;\n  }\n\n  modifier isOwner(){\n    require(msg.sender == owner, \"Access denied\");\n    _;\n  }\n\n  function mint(uint qty) public payable noReentrant{\n    require(msg.value >= qty * pricePerToken * 1e17, \"Insufficient Funds\");\n    require(auraToken.balanceOf(address(this)) >= qty, \"Not enough mint funds left\");\n\n    auraToken.transfer(msg.sender, qty);\n    mintMember[msg.sender] += qty;\n    \n    emit Minted(msg.sender, qty);\n  }\n\n  function withdraw() public isOwner{\n    payable(owner).transfer(address(this).balance);\n  }\n\n  function withdrawTokens(uint qty) public isOwner{\n    auraToken.transfer(owner, qty);\n  }\n\n  function adjustExchangeRate(uint newRate) public isOwner{\n    pricePerToken = newRate;\n    emit NewXrate(newRate);\n  }\n\n  function getMintTotal(address addr) public view returns(uint total){\n    return mintMember[addr];\n  }\n}\n",
  "sourcePath": "C:\\Users\\Ian\\FactionFinancial\\contracts\\MintAura.sol",
  "compiler": {
    "name": "solc",
    "version": "0.8.12+commit.f00d7308.Emscripten.clang"
  },
  "schemaVersion": "3.4.6",
  "updatedAt": "2022-04-05T01:50:47.372Z",
  "devdoc": {
    "kind": "dev",
    "methods": {},
    "version": 1
  },
  "userdoc": {
    "kind": "user",
    "methods": {},
    "version": 1
  }
}